:100000000C9477000C94F5040C94CE040C949F008F
:100010000C949F000C949F000C949F000C949F00E4
:100020000C949F000C949F000C949F000C949F00D4
:100030000C949F000C949F000C949F000C949F00C4
:100040000C9484040C949F000C9442050C941C05A1
:100050000C949F000C949F000C949F000C949F00A4
:100060000C949F000C949F0071067C0687069406F2
:10007000A106AE06BB06C806D506E206EF06FC06DC
:1000800009071607230730073D074A075707640784
:1000900000000000240027002A00000000002500C6
:1000A00028002B0000000000230026002900040483
:1000B0000404040404040202020202020303030310
:1000C00003030102040810204080010204081020EC
:1000D00001020408102000000008000201000003D3
:1000E000040700000000000000007405130911243B
:1000F0001FBECFEFD8E0DEBFCDBF11E0A0E0B1E082
:10010000EEEDF7E102C005900D92A035B107D9F7E9
:1001100022E0A0E5B1E001C01D92A83CB207E1F7E2
:1001200010E0C6E7D0E004C02197FE010E94E0097C
:10013000C537D107C9F70E94C8050C94E20B0C948F
:1001400000008230C8F4E82FF0E0EE0FFF1FE0500F
:10015000FF4F71836083813041F0809169008C7F13
:10016000816080936900E89A089580916900837F97
:10017000846080936900E99A0895833081F028F4BF
:10018000813099F08230A1F008958730A9F088304D
:10019000B9F08430D1F4809180008F7D03C08091CC
:1001A00080008F7780938000089584B58F7702C098
:1001B00084B58F7D84BD08958091B0008F7703C092
:1001C0008091B0008F7D8093B0000895CF93DF932E
:1001D000282F30E0F901EA52FF4F8491F901EE53E4
:1001E000FF4FD491F901E255FF4FC491CC2391F018
:1001F00081110E94BD00EC2FF0E0EE0FFF1FEC55C7
:10020000FF4FA591B491EC91ED2381E090E021F4B2
:1002100080E002C080E090E0DF91CF9108951F93CD
:10022000CF93DF93282F30E0F901EA52FF4F8491FA
:10023000F901EE53FF4FD491F901E255FF4FC491FC
:10024000CC23C1F0162F81110E94BD00EC2FF0E0ED
:10025000EE0FFF1FE656FF4FA591B4919FB7F8949C
:10026000111104C08C91D095D82302C0EC91DE2BE3
:10027000DC939FBFDF91CF911F910895CF93DF93C0
:1002800090E0FC01EE53FF4F2491FC01E255FF4F3B
:100290008491882361F190E0880F991FFC01E05759
:1002A000FF4FC591D491FC01E656FF4FA591B49143
:1002B000611109C09FB7F8948881209582238883B3
:1002C000EC912E230BC0623061F49FB7F8948881C3
:1002D000322F309583238883EC912E2B2C939FBF54
:1002E00006C08FB7F894E8812E2B28838FBFDF914B
:1002F000CF9108951F93CF93DF93182FEB0161E007
:100300000E943E01209711F460E004C0CF3FD10568
:1003100039F461E0812FDF91CF911F910C940F018F
:10032000E12FF0E0EA52FF4FE491E330F9F048F4B6
:10033000E130B9F0E230A1F584B5806284BDC8BD7A
:1003400034C0E730E9F0E83019F1E43049F5809144
:100350008000806280938000D0938B00C0938A00DD
:1003600024C084B5806884BDC7BD1FC08091800053
:10037000806880938000D0938900C093880015C066
:100380008091B00080688093B000C093B3000DC02E
:100390008091B00080628093B000C093B40005C02B
:1003A000C038D1050CF0B5CFAFCFDF91CF911F9101
:1003B00008950895CF92DF92EF92FF920F931F93CB
:1003C000CF93DF936C017A018B01C0E0D0E0CE15B2
:1003D000DF0581F0D8016D918D01D601ED91FC9181
:1003E0000190F081E02DC6010995892B11F021962D
:1003F000EECF7E01C701DF91CF911F910F91FF904A
:10040000EF90DF90CF900895089580E090E00895F8
:10041000FC01538D448D252F30E0842F90E0821B0A
:10042000930B541710F0CF96089501970895FC018F
:10043000918D828D981761F0828DDF01A80FB11D1B
:100440005D968C91928D9F5F9F73928F90E008953F
:100450008FEF9FEF0895FC01918D828D981731F0F9
:10046000828DE80FF11D858D90E008958FEF9FEF4D
:100470000895FC01918D228D892F90E0805C9F4F23
:10048000821B91098F739927089583E092E00E945F
:10049000390221E0892B09F420E0822F0895FC0124
:1004A000848DDF01A80FB11DA35ABF4F2C91848DFD
:1004B00090E001968F739927848FA689B7892C9332
:1004C000A089B1898C9180648C93938D848D9813CD
:1004D00006C00288F389E02D80818F7D8083089596
:1004E000EF92FF920F931F93CF93DF93EC0181E084
:1004F000888F9B8D8C8D981305C0E889F989808140
:1005000085FD24C0F62E0B8D10E00F5F1F4F0F737B
:100510001127E02E8C8DE8120CC00FB607FCFACF25
:10052000E889F989808185FFF5CFCE010E944F02CD
:10053000F1CF8B8DFE01E80FF11DE35AFF4FF082E2
:100540000B8FEA89FB898081806207C0EE89FF8971
:100550006083E889F98980818064808381E090E00C
:10056000DF91CF911F910F91FF90EF900895CF935E
:10057000DF93EC01888D8823C9F0EA89FB898081AB
:1005800085FD05C0A889B9898C9186FD0FC00FB67D
:1005900007FCF5CF808185FFF2CFA889B9898C91BE
:1005A00085FFEDCFCE010E944F02E7CFDF91CF91C3
:1005B000089580E090E0892B29F00E944502811186
:1005C0000C9400000895CF92DF92EF92FF92CF93A8
:1005D000DF932FB7F8944091FA015091FB0160919D
:1005E000FC017091FD0196B5A89B06C09F3F21F0CC
:1005F0004F5F5F4F6F4F7F4F2FBFCC24D42EE52E20
:10060000F62EC90ED11CE11CF11CF2E0CC0CDD1C55
:10061000EE1CFF1CFA95D1F7C82FD0E0FE01E05682
:10062000FD4F80810E94E60021E0892B09F420E043
:10063000FE01EC54FE4F8081281711F1DE01A05617
:10064000BE4F3C91CE01880F991F880F991F23132D
:1006500009C0DC01A05BBE4FCD92DD92ED92FC9211
:1006600013970DC0CC0FDD1FC853DE4FDC01A05B1C
:10067000BE4F8D919C91C81AD90AD982C882208315
:10068000DF91CF91FF90EF90DF90CF90089580E0C1
:100690000C94E30281E00C94E30282E00C94E30208
:1006A00083E00C94E30284E00C94E30285E00C9474
:1006B000E30286E00C94E30287E00C94E30288E016
:1006C0000C94E30289E00C94E3028AE00C94E302C8
:1006D0008BE00C94E3028CE00C94E3028DE00C942C
:1006E000E3028EE00C94E3028FE00C94E30280E1DD
:1006F0000C94E30281E10C94E30282E10C94E302A6
:1007000083E10C94E302009769F0FC010190002062
:10071000E9F73197AF01481B590BBC0183E092E028
:100720000C94DA0180E090E00895CF93DF93EC0120
:1007300088819981009711F00E947E0A198218829F
:100740001D821C821B821A82DF91CF9108950E9424
:10075000CD0B0F931F93CF93DF93EC018881998189
:10076000009729F02A813B812617370788F48B01EF
:100770006F5F7F4F0E94070B009761F0998388831A
:100780001B830A832C813D81232B11F4FC011082F1
:1007900081E001C080E0DF91CF911F910F9108951A
:1007A000EF92FF920F931F93CF93DF936115710523
:1007B00011F480E01CC041155105C1F07B01EC0132
:1007C0008C819D818A01080F191FB801CE010E94FA
:1007D000A903882371F3288139818C819D81B70118
:1007E000820F931F0E94DB0B1D830C8381E0DF913E
:1007F000CF911F910F91FF90EF900895EF92FF928C
:100800000F931F93CF93DF93EC017B018A01BA0111
:100810000E94A903811104C0CE010E94950307C064
:100820001D830C83B701888199810E94DB0BCE0167
:10083000DF91CF911F910F91FF90EF900895EF926C
:10084000FF920F931F93CF93DF93CDB7DEB76297DD
:100850000FB6F894DEBF0FBECDBF8C01CB01F801FF
:100860001182108213821282158214824AE09E0144
:100870002F5F3F4F7901B9010E941909F7010190DB
:100880000020E9F73197AF014E195F09B701C801A0
:100890000E94FE0362960FB6F894DEBF0FBECDBF76
:1008A000DF91CF911F910F91FF90EF90089522E07B
:1008B000853B920789F0FC016081718161157105AA
:1008C00039F04481558185EB92E00E94FE0304C01B
:1008D00085EB92E00E94950385EB92E00895FC0180
:1008E00011821082138212821582148261157105A1
:1008F00051F0FB0101900020E9F73197AF01461B51
:10090000570B0C94FE0308951F920F920FB60F928F
:1009100011242F933F938F939F93AF93BF93809115
:10092000FF0190910002A0910102B091020230916A
:10093000FE0123E0230F2D3720F40196A11DB11DE8
:1009400005C026E8230F0296A11DB11D2093FE01CC
:100950008093FF0190930002A0930102B0930202E2
:100960008091FA019091FB01A091FC01B091FD01F1
:100970000196A11DB11D8093FA019093FB01A093F4
:10098000FC01B093FD01BF91AF919F918F913F9179
:100990002F910F900FBE0F901F9018951F920F92DE
:1009A0000FB60F9211242F933F934F935F936F9342
:1009B0007F938F939F93AF93BF93EF93FF93E091B8
:1009C0000201F09103010995FF91EF91BF91AF9161
:1009D0009F918F917F916F915F914F913F912F9157
:1009E0000F900FBE0F901F9018951F920F920FB689
:1009F0000F9211242F933F934F935F936F937F93A5
:100A00008F939F93AF93BF93EF93FF93E091000178
:100A1000F09101010995FF91EF91BF91AF919F91E5
:100A20008F917F916F915F914F913F912F910F9097
:100A30000FBE0F901F9018951F920F920FB60F9236
:100A400011242F933F934F935F936F937F938F93D3
:100A50009F93AF93BF93EF93FF9383E092E00E9445
:100A60004F02FF91EF91BF91AF919F918F917F9135
:100A70006F915F914F913F912F910F900FBE0F900B
:100A80001F9018951F920F920FB60F9211242F935B
:100A90008F939F93EF93FF93E0911302F0911402D1
:100AA0008081E0911902F0911A0282FD12C09081BA
:100AB00080911C028F5F8F7320911D02821751F06D
:100AC000E0911C02F0E0ED5FFD4F958F80931C02DA
:100AD00001C08081FF91EF919F918F912F910F9095
:100AE0000FBE0F901F901895E3E0F2E01382128280
:100AF00088EE93E0A0E0B0E084839583A683B7837B
:100B00008EE091E09183808385EC90E095878487E7
:100B100084EC90E09787868780EC90E0918B808BC7
:100B200081EC90E0938B828B82EC90E0958B848BB0
:100B300086EC90E0978B868B118E128E138E148E1E
:100B4000ECEBF2E087E090E09183808388E090E036
:100B50009383828385E090E09583848386E090E0B0
:100B600097838683E091B402E093BB0281E08E0F0D
:100B70008093B402F0E0E056FD4F82E0808360E0B5
:100B80000E943E0169E271E085EB92E00C946F04F3
:100B9000CF93DF93CDB7DEB7A7970FB6F894DEBF3C
:100BA0000FBECDBF789484B5826084BD84B581606A
:100BB00084BD85B5826085BD85B5816085BD809128
:100BC0006E00816080936E001092810080918100A0
:100BD0008260809381008091810081608093810098
:100BE000809180008160809380008091B10084605A
:100BF0008093B1008091B00081608093B0008091BB
:100C00007A00846080937A0080917A008260809379
:100C10007A0080917A00816080937A0080917A00D6
:100C2000806880937A001092C100E0911302F091E5
:100C3000140282E08083E0910F02F0911002108292
:100C4000E0911102F091120280E1808310921B0268
:100C5000E0911702F091180286E08083E09115027E
:100C6000F0911602808180618083E0911502F091FD
:100C70001602808188608083E0911502F09116024F
:100C8000808180688083E0911502F0911602808156
:100C90008F7D80830091BB0210E0F801E056FD4F8C
:100CA00080810E94E600F801EC54FE4F21E0892B80
:100CB00009F420E020838091BB02A82FB0E0FD0161
:100CC000E056FE4F91E09083482F50E044315105AB
:100CD00008F008C1FA01EC5CFF4FA056BD4F0C9420
:100CE000E0099C91923029F0933011F08FEF01C010
:100CF00081E067E473E0F4C09C91923021F093307E
:100D000019F08FEF01C080E06AE473E0E9C08C91D4
:100D1000823021F0833021F08FEF03C080E001C0EA
:100D200081E06DE473E0DCC08C91823021F083308F
:100D300021F08FEF03C080E001C081E060E573E047
:100D4000CFC08C91823021F0833021F08FEF03C02F
:100D500080E001C081E063E573E0C2C08C91823025
:100D600021F0833021F08FEF03C080E001C081E0EB
:100D700066E573E0B5C08C91823021F0833021F0BC
:100D80008FEF03C080E001C081E069E573E0A8C097
:100D90008C91823021F0833021F08FEF03C080E00E
:100DA00001C081E06CE573E09BC08C91823021F042
:100DB000833021F08FEF03C080E001C081E06FE558
:100DC00073E08EC08C91823021F0833021F08FEF60
:100DD00003C080E001C081E062E673E081C08C91D5
:100DE000823021F0833021F08FEF03C080E001C01A
:100DF00081E065E673E074C08C91823021F083302D
:100E000021F08FEF03C080E001C081E068E673E06D
:100E100067C08C91823021F0833021F08FEF03C0C6
:100E200080E001C081E06BE673E05AC08C918230B3
:100E300021F0833021F08FEF03C080E001C081E01A
:100E40006EE673E04DC08C91823021F0833021F04A
:100E50008FEF03C080E001C081E061E773E040C034
:100E60008C91823021F0833021F08FEF03C080E03D
:100E700001C081E064E773E033C08C91823021F0DF
:100E8000833021F08FEF03C080E001C081E067E78D
:100E900073E026C08C91823021F0833021F08FEFF7
:100EA00003C080E001C081E06AE773E019C08C9163
:100EB000823021F0833021F08FEF03C080E001C049
:100EC00081E06DE773E00CC08C91823021F08330BB
:100ED00021F08FEF03C080E001C081E060E873E0A3
:100EE0000E94A10061E08091BC020E943E0161E08D
:100EF0008091BE020E943E0161E08091C0020E948A
:100F00003E0161E08091C2020E943E0161E0809159
:100F1000BC020E940F0161E08091BE020E940F019D
:100F200022242394312C24E8822E2EEF922EAA2400
:100F3000AA94BA2C3AE0C32ED12CE12CF12C2FB775
:100F4000F8948091FF0190910002A0910102B0916C
:100F500002022FBF4091F6015091F7016091F80114
:100F60007091F901841B950BA60BB70B0A97A1058D
:100F7000B10508F455C12FB7F8948091FF01909105
:100F80000002A0910102B09102022FBF8093F601EE
:100F90009093F701A093F801B093F901E091BB029F
:100FA000F0E0EE0FFF1FE853FE4F80819181909398
:100FB000F5018093F4018CE191E00E94830340905D
:100FC000F4015090F501052C000C6608770877FEB7
:100FD00020C06DE283E092E00E9470022227332756
:100FE000A901241935094609570919A28E010F5D77
:100FF0001F4FCA01B901A70196010E94AF09605DA8
:10100000F80162938F01211531054105510589F7DA
:1010100015C0A301920119A28E010F5D1F4FCA01D5
:10102000B901A70196010E94AF09605DF8016293C2
:101030008F01211531054105510589F7C8010E942D
:10104000830387E291E00E9483031092F3011092E0
:10105000F2011092F1011092F00148E050E06AE2D2
:1010600071E085EB92E00E94FE032091F401309143
:10107000F501C901875494408139914038F5309287
:10108000F3012092F201C901330FAA0BBB0B9C01A3
:10109000AD01235C354041095109ACE1B0E00E944B
:1010A0006D09A50194010E944E09CA01B901635E50
:1010B0007F4F8F4F9F4F7093F1016093F001CE01EE
:1010C00082960E941F0463E371E031C0C901815E12
:1010D00095408139914008F048C082E090E09093BB
:1010E000F3018093F201C901330FAA0BBB0B9C01E2
:1010F000AD01255F354041095109ACE1B0E00E94E6
:101100006D092CE731E040E050E00E944E09CA0131
:10111000B901635E7F4F8F4F9F4F7093F1016093D2
:10112000F001CE0182960E941F0461E471E0CE01BD
:1011300001960E946F044EA15FA16AA17BA1CE011E
:1011400001960E94D003811104C0CE0101960E9435
:101150009503CE0101960E94570489819A810E94CD
:101160007E0A8AA19BA10E947E0A8091F201909141
:10117000F3010097A9F460E08091BC020E940F0186
:1011800060E08091BE020E940F0160E08091C00289
:101190000E940F0160E08091C2020E940F0130C0E6
:1011A0000091F0011091F1018130910591F461E01D
:1011B0008091BC020E940F0161E08091BE020E94FA
:1011C0000F0160E070E08091C0020E947A01B801D6
:1011D00013C00297A9F461E08091BC020E940F0144
:1011E00061E08091BE020E940F01B8018091C002AF
:1011F0000E947A0160E070E08091C2020E947A0150
:101200004091B9025091BA026091B5027091B60254
:1012100083E092E00E94DA0187E291E00E9483037A
:101220000E94D9028CCE8091B5029091B6020C94A6
:101230007E0ABB274A3031F4992322F4BDE290950F
:1012400081959F4F0C942509BB27FB015527AA27A1
:10125000880F991FAA1FA41710F0A41B8395505143
:10126000B9F7A05DAA3308F0A95DA193009779F7BB
:10127000B111B1931192CB010C943E09DC01FC0138
:10128000672F71917723E1F7329704C07C916D93BA
:1012900070836291AE17BF07C8F30895052E97FBC0
:1012A0001EF400940E94650957FD07D00E94AF0903
:1012B00007FC03D04EF40C94650950954095309589
:1012C00021953F4F4F4F5F4F0895909580957095B2
:1012D00061957F4F8F4F9F4F08950E94D109A59F21
:1012E000900DB49F900DA49F800D911D1124089521
:1012F0002F923F924F925F926F927F928F929F9226
:10130000AF92BF92CF92DF92EF92FF920F931F9313
:10131000CF93DF93CDB7DEB7CA1BDB0B0FB6F894C4
:10132000DEBF0FBECDBF09942A88398848885F8404
:101330006E847D848C849B84AA84B984C884DF8075
:10134000EE80FD800C811B81AA81B981CE0FD11D59
:101350000FB6F894DEBF0FBECDBFED010895A1E238
:101360001A2EAA1BBB1BFD010DC0AA1FBB1FEE1F1F
:10137000FF1FA217B307E407F50720F0A21BB30B6A
:10138000E40BF50B661F771F881F991F1A9469F7E6
:1013900060957095809590959B01AC01BD01CF0142
:1013A0000895A29FB001B39FC001A39F700D811D3E
:1013B0001124911DB29F700D811D1124911D08955E
:1013C000EE0FFF1F0590F491E02D09940F931F93EA
:1013D000CF93DF938230910510F482E090E0E091AA
:1013E000C602F091C70220E030E0A0E0B0E0309704
:1013F00019F1408151810281138148175907C8F0C2
:101400008417950769F4109731F012960C93129790
:1014100013961C9327C00093C6021093C70222C0E4
:101420002115310519F04217530718F49A01BD012F
:10143000EF01DF01F801DBCF21153105F9F0281BA1
:10144000390B2430310580F48A819B816115710547
:1014500021F0FB019383828304C09093C7028093A1
:10146000C602FE01329644C0FE01E20FF31F8193D3
:10147000919322503109398328833AC02091C402C4
:101480003091C502232B41F42091060130910701D0
:101490003093C5022093C4022091040130910501CC
:1014A0002115310541F42DB73EB740910801509107
:1014B0000901241B350BE091C402F091C502E2172B
:1014C000F307A0F42E1B3F0B2817390778F0AC0167
:1014D0004E5F5F4F2417350748F04E0F5F1F509344
:1014E000C5024093C4028193919302C0E0E0F0E012
:1014F000CF01DF91CF911F910F910895CF93DF938B
:10150000009709F481C0FC01329713821282A091E6
:10151000C602B091C702109781F420813181820FF9
:10152000931F2091C4023091C5022817390751F545
:10153000F093C502E093C40267C0ED0120E030E003
:10154000CE17DF0740F44A815B819E0141155105AA
:10155000F1F0EA01F5CFD383C28340815181840F3A
:10156000951FC817D90759F488819981840F951F51
:101570000296918380838A819B8193838283211544
:10158000310529F4F093C702E093C6023DC0E9019A
:10159000FB83EA8349915991C40FD51FEC17FD07CE
:1015A00061F480819181840F951F0296E9019983EE
:1015B0008883828193819B838A83E0E0F0E01296A6
:1015C0008D919C911397009719F0FD01DC01F7CFE5
:1015D0008D919C9111979D012E5F3F4F820F931F1C
:1015E0002091C4023091C5022817390769F4309759
:1015F00029F41092C7021092C60202C0138212820E
:10160000B093C502A093C402DF91CF910895A0E0EA
:10161000B0E0EDE0FBE00C947C09EC01009721F4D4
:10162000CB010E94E609B4C0FC01E60FF71F9C0144
:1016300022503109E217F30708F4A8C0D9010D912F
:101640001C91119706171707B0F00530110508F423
:101650009BC0C80104978617970708F495C00250ED
:101660001109061B170B019311936D937C93CF0106
:101670000E947E0A89C05B01A01AB10A4C01800E4B
:10168000911EA091C602B091C702612C712CE12C71
:10169000F12C109709F446C08D919C911197A815D3
:1016A000B905B1F56C0142E0C40ED11CCA14DB04CB
:1016B00078F14C018A189B08640142E0C40ED11CE9
:1016C0001296BC9012971396AC91B5E0CB16D1044C
:1016D00040F0B282A38391828082D9016D937C9382
:1016E00009C00E5F1F4F800F911FF9019183808306
:1016F000EB2DFA2FE114F10431F0D7011396FC938E
:10170000EE93129741C0F093C702E093C6023CC02B
:101710006816790608F43C017D0112960D90BC9183
:10172000A02DB7CF8091C4029091C502881699066A
:10173000E1F466167706C8F48091040190910501E2
:10174000009741F48DB79EB740910801509109016F
:10175000841B950BE817F907C8F4F093C502E093D2
:10176000C402F901718360830FC0CB010E94E609B6
:101770007C01009759F0A801BE010E94D20BCE0156
:101780000E947E0AC70104C0CE0102C080E090E042
:10179000CDB7DEB7EEE00C94980981E090E0F894C4
:1017A0000C94E20BFB01DC0102C001900D92415050
:1017B0005040D8F70895FB01DC0101900D92002004
:1017C000E1F7089510E0C6E7D0E004C0FE010E94F2
:0E17D000E0092196C737D107C9F7F894FFCF7B
:1017DE00D901D9010000C80280000000000070028B
:1017EE00DA010802B702390217022B0250574D20B8
:1017FE0070616E203D20000D0A0050414E5F535423
:10180E004F500050414E5F435720737064203D206F
:10181E000050414E5F43435720737064203D2000BB
:107800000C94343C0C94513C0C94513C0C94513CE1
:107810000C94513C0C94513C0C94513C0C94513CB4
:107820000C94513C0C94513C0C94513C0C94513CA4
:107830000C94513C0C94513C0C94513C0C94513C94
:107840000C94513C0C94513C0C94513C0C94513C84
:107850000C94513C0C94513C0C94513C0C94513C74
:107860000C94513C0C94513C11241FBECFEFD8E036
:10787000DEBFCDBF11E0A0E0B1E0ECE9FFE702C060
:1078800005900D92A230B107D9F712E0A2E0B1E065
:1078900001C01D92AD30B107E1F70E942D3D0C945F
:1078A000CC3F0C94003C982F959595959595959582
:1078B000905D8F708A307CF0282F295A8091C0000B
:1078C00085FFFCCF9093C6008091C00085FFFCCF60
:1078D0002093C6000895282F205DF0CF982F809127
:1078E000C00085FFFCCF9093C6000895EF92FF92F1
:1078F0000F931F93EE24FF2487018091C00087FD22
:1079000017C00894E11CF11C011D111D81E4E8164B
:1079100082E4F8068FE0080780E0180770F3E09132
:107920000401F091050109958091C00087FFE9CF1E
:107930008091C6001F910F91FF90EF9008950E94D3
:10794000763C982F8091C00085FFFCCF9093C600B5
:1079500091362CF490330CF09053892F089597555D
:10796000892F08951F930E949F3C182F0E949F3CCF
:107970001295107F810F1F9108951F93182F882350
:1079800021F00E94763C1150E1F71F9108951F935A
:10799000182F0E94763C803249F0809103018F5F5E
:1079A000809303018530C1F01F9108958091C0003C
:1079B00085FFFCCF84E18093C6008091C00085FFE5
:1079C000FCCF1093C6008091C00085FFFCCF80E102
:1079D0008093C6001F910895E0910401F091050184
:1079E00009951F9108950E94763C803241F0809164
:1079F00003018F5F80930301853081F008958091AA
:107A0000C00085FFFCCF84E18093C6008091C00058
:107A100085FFFCCF80E18093C6000895E0910401CA
:107A2000F09105010995089540E951E08823A1F0FE
:107A30002D9A28EE33E0FA013197F1F721503040CA
:107A4000D1F72D9828EE33E0FA013197F1F7215064
:107A50003040D1F7815061F708953F924F925F9285
:107A60006F927F928F929F92AF92BF92CF92DF924E
:107A7000EF92FF920F931F93CF93DF93000080E16B
:107A80008093C4001092C50088E18093C10086E015
:107A90008093C2005098589A259A81E00E94143D24
:107AA00024E1F22E9EE1E92E85E9D82E0FE0C02ECA
:107AB00010E1B12EAA24A394B1E49B2EA6E58A2E50
:107AC000F2E57F2EE0E26E2E79E4572E63E5462E36
:107AD00050E5352E0E94763C8033B1F18133B9F107
:107AE000803409F46FC0813409F476C0823409F41B
:107AF00085C0853409F488C0803531F1823521F1A3
:107B0000813511F1853509F485C0863509F48DC0BC
:107B1000843609F496C0843709F403C1853709F423
:107B200072C1863709F466C0809103018F5F80932C
:107B30000301853079F6E0910401F0910501099582
:107B40000E94763C803351F60E94F33CC3CF0E94E2
:107B5000763C803249F78091C00085FFFCCFF092DF
:107B6000C6008091C00085FFFCCF9092C600809136
:107B7000C00085FFFCCF8092C6008091C00085FFC9
:107B8000FCCF7092C6008091C00085FFFCCF609250
:107B9000C6008091C00085FFFCCF5092C600809146
:107BA000C00085FFFCCF4092C6008091C00085FFD9
:107BB000FCCF3092C6008091C00085FFFCCFB09210
:107BC000C60088CF0E94763C863808F4BDCF0E945C
:107BD000763C0E94F33C7ECF0E94763C803809F4CC
:107BE0009CC0813809F40BC1823809F43CC1883942
:107BF00009F48FC080E00E94C73C6CCF84E10E94F2
:107C0000BD3C0E94F33C66CF85E00E94BD3C0E94D3
:107C1000F33C60CF0E94763C809306010E94763C44
:107C2000809307010E94F33C55CF0E94763C80333D
:107C300009F41DC183E00E94BD3C80E00E94C73C66
:107C400049CF0E94763C809309020E94763C809343
:107C5000080280910C028E7F80930C020E94763C79
:107C6000853409F415C18091080290910902892B8D
:107C700089F000E010E00E94763CF801E85FFE4FDA
:107C800080830F5F1F4F80910802909109020817AF
:107C9000190788F30E94763C803209F045CF809125
:107CA0000C0280FF01C16091060170910701660F0F
:107CB000771F7093070160930601A0910802B091AD
:107CC00009021097C9F0E8E0F1E09B01AD014E0F09
:107CD0005F1FF999FECF32BD21BD819180BDFA9A17
:107CE000F99A2F5F3F4FE417F50799F76A0F7B1F4B
:107CF00070930701609306018091C00085FFFCCF5F
:107D0000F092C6008091C00085FFFCCFB092C60003
:107D1000E1CE83E00E94C73CDDCE82E00E94C73CFA
:107D2000D9CE0E94763C809309020E94763C8093D3
:107D300008028091060190910701880F991F909386
:107D40000701809306010E94763C853409F4A6C0A1
:107D500080910C028E7F80930C020E94763C8032D0
:107D600009F0B8CE8091C00085FFFCCFF092C6002C
:107D7000609108027091090261157105B9F140E046
:107D800050E080910C02A82FA170B82FB27011C0E2
:107D9000BB2309F45CC0E0910601F0910701319624
:107DA000F0930701E09306014F5F5F4F46175707B7
:107DB000E8F4AA2369F3F999FECF209106013091E6
:107DC000070132BD21BDF89A90B58091C00085FFB2
:107DD000FCCF9093C6002F5F3F4F30930701209355
:107DE00006014F5F5F4F4617570718F38091C00099
:107DF00085FDE5CE8091C00085FFF8CFE0CE81E023
:107E00000E94C73C67CE0E94763C803209F08CCE3F
:107E10008091C00085FFFCCFF092C6008091C00029
:107E200085FFFCCFE092C6008091C00085FFFCCFAB
:107E3000D092C6008091C00085FFFCCFC092C600E2
:107E40008091C00085FFFCCFB092C60043CEE09188
:107E50000601F091070194918091C00085FFFCCF4D
:107E60009093C6009CCF80E10E94C73C33CE0E9415
:107E7000763C0E94763C182F0E94763C112309F430
:107E800083C0113009F484C08FE00E94C73C22CE29
:107E900080910C02816080930C02E5CE80910C02EF
:107EA000816080930C0259CF809107018823880F4D
:107EB000880B8A2180930B02809106019091070123
:107EC000880F991F90930701809306018091080203
:107ED00080FF09C080910802909109020196909359
:107EE000090280930802F894F999FECF1127E091D6
:107EF0000601F0910701C8E0D1E08091080290915D
:107F00000902103091F40091570001700130D9F34B
:107F100003E000935700E89500915700017001308D
:107F2000D9F301E100935700E89509901990009169
:107F3000570001700130D9F301E000935700E89534
:107F40001395103498F011270091570001700130FB
:107F5000D9F305E000935700E895009157000170B0
:107F60000130D9F301E100935700E895329602976A
:107F700009F0C7CF103011F00296E5CF112480919F
:107F8000C00085FFB9CEBCCE8EE10E94C73CA2CD19
:0C7F900085E90E94C73C9ECDF894FFCF0D
:027F9C00800063
:040000030000780081
:00000001FF
